:020000040800F2
:1000000000000220253400088D32000893320008D9
:10001000993200089F320008A53200080000000055
:10002000000000000000000000000000AB320008EB
:10003000B732000800000000C3320008CF320008C9
:1000400075340008753400087534000875340008EC
:100050007534000875340008DB320008E932000806
:1000600075340008753400087534000875340008CC
:10007000753400087534000875340008F93200083A
:1000800075340008753400080D3300087534000815
:1000900075340008753400087534000821330008F1
:1000A00075340008353300087534000875340008CD
:1000B00075340008753400084933000875340008A9
:1000C000753400087534000875340008753400086C
:1000D00075340008753400085D1500085D330008AC
:1000E0007534000875340008753400087133000851
:1000F0008D330008A93300087534000875340008F2
:10010000753400087534000875340008753400082B
:10011000753400087534000875340008753400081B
:10012000F133000875340008753400087534000890
:1001300075340008753400087534000875340008FB
:1001400075340008753400087534000875340008EB
:1001500075340008753400087534000875340008DB
:10016000053400087534000875340008753400083B
:10017000753400087534000875340008000000006C
:0401800075340008CA
:1001880010B5054C237833B9044B13B10448AFF3C9
:1001980000800123237010BD98000020000000009B
:1001A80094A4000808B5034B1BB103490348AFF3F7
:1001B800008008BD000000009C00002094A40008F6
:1001C80081F0004102E000BF83F0004330B54FEA00
:1001D80041044FEA430594EA050F08BF90EA020F6D
:1001E8001FBF54EA000C55EA020C7FEA645C7FEA00
:1001F800655C00F0E2804FEA5454D4EB5555B8BF23
:100208006D420CDD2C4480EA020281EA030382EA93
:10021800000083EA010180EA020281EA0303362D25
:1002280088BF30BD11F0004F4FEA01314FF4801CF8
:100238004CEA113102D0404261EB410113F0004F0A
:100248004FEA03334CEA133302D0524263EB4303C1
:1002580094EA050F00F0A780A4F10104D5F1200E5F
:100268000DDB02FA0EFC22FA05F2801841F10001BA
:1002780003FA0EF2801843FA05F359410EE0A5F18E
:1002880020050EF1200E012A03FA0EFC28BF4CF0BF
:10029800020C43FA05F3C01851EBE37101F0004575
:1002A80007D54FF0000EDCF1000C7EEB00006EEB82
:1002B8000101B1F5801F1BD3B1F5001F0CD349080C
:1002C8005FEA30004FEA3C0C04F101044FEA445263
:1002D80012F5800F80F09A80BCF1004F08BF5FEAEA
:1002E800500C50F1000041EB045141EA050130BDCA
:1002F8005FEA4C0C404141EB0101013C28BFB1F5DC
:10030800801FE9D291F0000F04BF01460020B1FA26
:1003180081F308BF2033A3F10B03B3F120020CDAF9
:100328000C3208DD02F1140CC2F10C0201FA0CF0D7
:1003380021FA02F10CE002F11402D8BFC2F1200C3C
:1003480001FA02F120FA0CFCDCBF41EA0C019040F2
:10035800E41AA2BF01EB0451294330BD6FEA04043B
:100368001F3C1CDA0C340EDC04F11404C4F1200226
:1003780020FA04F001FA02F340EA030021FA04F338
:1003880045EA030130BDC4F10C04C4F1200220FA8F
:1003980002F001FA04F340EA0300294630BD21FACD
:1003A80004F0294630BD94F0000F83F4801306BF93
:1003B80081F480110134013D4EE77FEA645C18BF87
:1003C8007FEA655C29D094EA050F08BF90EA020F1E
:1003D80005D054EA000C04BF1946104630BD91EA16
:1003E800030F1EBF0021002030BD5FEA545C05D119
:1003F8004000494128BF41F0004130BD14F5800458
:100408003CBF01F5801130BD01F0004545F0FE41CB
:1004180041F470014FF0000030BD7FEA645C1ABF00
:10042800194610467FEA655C1CBF0B46024650EA37
:10043800013406BF52EA033591EA030F41F4002163
:1004480030BD00BF90F0000F04BF0021704730B5E9
:100458004FF4806404F132044FF000054FF00001BE
:1004680050E700BF90F0000F04BF0021704730B57F
:100478004FF4806404F1320410F0004548BF404254
:100488004FF000013EE700BF42004FEAE2014FEAA9
:1004980031014FEA02701FBF12F07F4393F07F4F84
:1004A80081F06051704732F07F4208BF704793F087
:1004B8007F4F04BF41F40021704730B54FF460749A
:1004C80001F0004521F000411CE700BF50EA01029D
:1004D80008BF704730B54FF000050AE050EA010246
:1004E80008BF704730B511F0004502D5404261EBB6
:1004F80041014FF4806404F132045FEA915C3FF4F7
:10050800D8AE4FF003025FEADC0C18BF03325FEA93
:10051800DC0C18BF033202EBDC02C2F1200300FA44
:1005280003FC20FA02F001FA03FE40EA0E0021FA69
:1005380002F11444BDE600BF70B54FF0FF0C4CF457
:10054800E06C1CEA11541DBF1CEA135594EA0C0F09
:1005580095EA0C0F00F0DEF82C4481EA030621EA44
:100568004C5123EA4C5350EA013518BF52EA03357F
:1005780041F4801143F4801338D0A0FB02CE4FF031
:100588000005E1FB02E506F00042E0FB03E54FF061
:100598000006E1FB03569CF0000F18BF4EF0010E59
:1005A800A4F1FF04B6F5007F64F5407404D25FEA55
:1005B8004E0E6D4146EB060642EAC62141EA555108
:1005C8004FEAC52040EA5E504FEACE2EB4F1FD0C4A
:1005D80088BFBCF5E06F1ED8BEF1004F08BF5FEAC8
:1005E800500E50F1000041EB045170BD06F000467A
:1005F80046EA010140EA020081EA0301B4EB5C0427
:10060800C2BFD4EB0C0541EA045170BD41F480111E
:100618004FF0000E013C00F3AB8014F1360FDEBF43
:10062800002001F0004170BDC4F10004203C35DA1F
:100638000C341BDC04F11404C4F1200500FA05F3A2
:1006480020FA04F001FA05F240EA020001F0004243
:1006580021F0004110EBD37021FA04F642EB0601B9
:100668005EEA430E08BF20EAD37070BDC4F10C04E3
:10067800C4F1200500FA04F320FA05F001FA04F2A7
:1006880040EA020001F0004110EBD37041F1000193
:100698005EEA430E08BF20EAD37070BDC4F120059E
:1006A80000FA05F24EEA020E20FA04F301FA05F206
:1006B80043EA020321FA04F001F0004121FA04F2AE
:1006C80020EA020000EBD3705EEA430E08BF20EA7E
:1006D800D37070BD94F0000F0FD101F000464000B8
:1006E80041EB010111F4801F08BF013CF7D041EA3A
:1006F800060195F0000F18BF704703F0004652003E
:1007080043EB030313F4801F08BF013DF7D043EA0E
:100718000603704794EA0C0F0CEA135518BF95EAC4
:100728000C0F0CD050EA410618BF52EA4306D1D14B
:1007380081EA030101F000414FF0000070BD50EA6A
:10074800410606BF1046194652EA430619D094EAF4
:100758000C0F02D150EA013613D195EA0C0F05D1DE
:1007680052EA03361CBF104619460AD181EA030132
:1007780001F0004141F0FE4141F470014FF00000EA
:1007880070BD41F0FE4141F4780170BD70B54FF085
:10079800FF0C4CF4E06C1CEA11541DBF1CEA135505
:1007A80094EA0C0F95EA0C0F00F0A7F8A4EB0504E7
:1007B80081EA030E52EA03354FEA013100F08880DE
:1007C8004FEA03334FF0805545EA131343EA1263A7
:1007D8004FEA022245EA111545EA10654FEA00265C
:1007E8000EF000419D4208BF964244F1FD0404F515
:1007F800407402D25B084FEA3202B61A65EB030571
:100808005B084FEA32024FF480104FF4002CB6EB2D
:10081800020E75EB030E22BFB61A754640EA0C00AD
:100828005B084FEA3202B6EB020E75EB030E22BFED
:10083800B61A754640EA5C005B084FEA3202B6EB2E
:10084800020E75EB030E22BFB61A754640EA9C00ED
:100858005B084FEA3202B6EB020E75EB030E22BFBD
:10086800B61A754640EADC0055EA060E18D04FEA7B
:10087800051545EA16754FEA06164FEAC30343EA1B
:1008880052734FEAC2025FEA1C1CC0D111F4801FE8
:100898000BD141EA00014FF000004FF0004CB6E7E1
:1008A80011F4801F04BF01430020B4F1FD0C88BF80
:1008B800BCF5E06F3FF6AFAEB5EB030C04BFB6EB8B
:1008C800020C5FEA500C50F1000041EB045170BD7E
:1008D8000EF0004E4EEA113114EB5C04C2BFD4EBAB
:1008E8000C0541EA045170BD41F480114FF0000E2F
:1008F800013C90E645EA060E8DE60CEA135594EAAB
:100908000C0F08BF95EA0C0F3FF43BAF94EA0C0FAD
:100918000AD150EA01347FF434AF95EA0C0F7FF422
:1009280025AF104619462CE795EA0C0F06D152EA76
:1009380003353FF4FDAE1046194622E750EA41065A
:1009480018BF52EA43067FF4C5AE50EA41047FF46B
:100958000DAF52EA43057FF4EBAE12E74FF0FF3CD0
:1009680006E000BF4FF0010C02E000BF4FF0010CA1
:100978004DF804CD4FEA410C7FEA6C5C4FEA430C1A
:1009880018BF7FEA6C5C1BD001B050EA410C0CBF69
:1009980052EA430C91EA030F02BF90EA020F0020CB
:1009A800704710F1000F91EA030F58BF994208BF32
:1009B80090422CBFD8176FEAE37040F001007047EF
:1009C8004FEA410C7FEA6C5C02D150EA013C07D146
:1009D8004FEA430C7FEA6C5CD6D152EA033CD3D091
:1009E8005DF8040B704700BF8446104662468C468B
:1009F8001946634600E000BF01B5FFF7B7FF0028BE
:100A080048BF10F1000F01BD4DF808EDFFF7F4FFE6
:100A18000CBF012000205DF808FB00BF4DF808ED71
:100A2800FFF7EAFF34BF012000205DF808FB00BF94
:100A38004DF808EDFFF7E0FF94BF012000205DF8B6
:100A480008FB00BF4DF808EDFFF7CEFF94BF01206B
:100A580000205DF808FB00BF4DF808EDFFF7C4FF64
:100A680034BF012000205DF808FB00BF4FEA410CAD
:100A78007FEA6C5C02D150EA013C0AD14FEA430C90
:100A88007FEA6C5C02D152EA033C02D14FF00000CD
:100A980070474FF0010070474FEA410212F500120B
:100AA80015D211D56FF47873B3EB625212D94FEAAD
:100AB800C12343F0004343EA505311F0004F23FA97
:100AC80002F018BF404270474FF00000704750EAEC
:100AD800013005D111F0004008BF6FF000407047A9
:100AE8004FF00000704700BF4A0011D212F5001203
:100AF80011D20DD56FF47873B3EB62520ED44FEA6E
:100B0800C12343F0004343EA505323FA02F07047ED
:100B18004FF00000704750EA013002D14FF0FF302B
:100B280070474FF0000070474FEA4102B2F1E043CE
:100B380024BFB3F5001CDCF1FE5C0DD901F0004CBC
:100B48004FEAC0024CEA5070B2F1004F40EB83000C
:100B580008BF20F00100704711F0804F21D113F138
:100B68003872BCBF01F00040704741F480114FEA71
:100B78005252C2F11802C2F1200C10FA0CF320FAFA
:100B880002F018BF40F001004FEAC1234FEAD32317
:100B980003FA0CFC40EA0C0023FA02F34FEA430381
:100BA800CCE77FEA625307D150EA01331EBF4FF00A
:100BB800FE4040F44000704701F0004040F0FE4025
:100BC80040F40000704700BF80F0004002E000BF22
:100BD80081F0004142001FBF5FEA410392EA030F20
:100BE8007FEA226C7FEA236C6AD04FEA1262D2EB6A
:100BF8001363C1BFD218414048404140B8BF5B426F
:100C0800192B88BF704710F0004F40F4000020F007
:100C18007F4018BF404211F0004F41F4000121F01D
:100C28007F4118BF494292EA030F3FD0A2F1010267
:100C380041FA03FC10EB0C00C3F1200301FA03F1A5
:100C480000F0004302D5494260EB4000B0F5000FC8
:100C580013D3B0F1807F06D340084FEA310102F187
:100C68000102FE2A51D2B1F1004F40EBC25008BF39
:100C780020F0010040EA03007047490040EB000003
:100C8800013A28BFB0F5000FEDD2B0FA80FCACF104
:100C9800080CB2EB0C0200FA0CF0AABF00EBC25031
:100CA80052421843BCBFD0401843704792F0000F1F
:100CB80081F4000106BF80F400000132013BB5E772
:100CC8004FEA41037FEA226C18BF7FEA236C21D0E8
:100CD80092EA030F04D092F0000F08BF084670474D
:100CE80090EA010F1CBF0020704712F07F4F04D11B
:100CF800400028BF40F00040704712F100723CBF2E
:100D080000F50000704700F0004343F0FE4040F457
:100D1800000070477FEA226216BF08467FEA236315
:100D28000146420206BF5FEA412390EA010F40F400
:100D3800800070474FF0000304E000BF10F000434C
:100D480048BF40425FEA000C08BF704743F0964333
:100D580001464FF000001CE050EA010208BF70474E
:100D68004FF000030AE000BF50EA010208BF7047D5
:100D780011F0004302D5404261EB41015FEA010CEA
:100D880002BF84460146002043F0B64308BFA3F1E2
:100D98008053A3F50003BCFA8CF2083AA3EBC253C4
:100DA80010DB01FA02FC634400FA02FCC2F12002E3
:100DB800BCF1004F20FA02F243EB020008BF20F01A
:100DC8000100704702F1200201FA02FCC2F1200280
:100DD80050EA4C0021FA02F243EB020008BF20EA75
:100DE800DC7070474FF0FF0C1CEAD0521EBF1CEAA3
:100DF800D15392EA0C0F93EA0C0F6FD01A4480EA91
:100E0800010C400218BF5FEA41211ED04FF0006379
:100E180043EA501043EA5111A0FB01310CF00040A5
:100E2800B1F5000F3EBF490041EAD3715B0040EACB
:100E3800010062F17F02FD2A1DD8B3F1004F40EB9B
:100E4800C25008BF20F00100704790F0000F0CF06E
:100E5800004C08BF49024CEA502040EA51207F3A32
:100E6800C2BFD2F1FF0340EAC250704740F400000D
:100E78004FF00003013A5DDC12F1190FDCBF00F0FE
:100E880000407047C2F10002410021FA02F1C2F1AC
:100E9800200200FA02FC5FEA310040F1000053EA48
:100EA8004C0308BF20EADC70704792F0000F00F096
:100EB800004C02BF400010F4000F013AF9D040EA9C
:100EC8000C0093F0000F01F0004C02BF490011F430
:100ED800000F013BF9D041EA0C018FE70CEAD1532E
:100EE80092EA0C0F18BF93EA0C0F0AD030F0004CAE
:100EF80018BF31F0004CD8D180EA010000F0004062
:100F0800704790F0000F17BF90F0004F084691F01F
:100F1800000F91F0004F14D092EA0C0F01D1420259
:100F28000FD193EA0C0F03D14B0218BF084608D122
:100F380080EA010000F0004040F0FE4040F400006C
:100F4800704740F0FE4040F4400070474FF0FF0CFF
:100F58001CEAD0521EBF1CEAD15392EA0C0F93EA46
:100F68000C0F69D0A2EB030280EA010C49024FEA98
:100F7800402037D04FF0805343EA111143EA101351
:100F88000CF000408B4238BF5B0042F17D024FF409
:100F9800000C8B4224BF5B1A40EA0C00B3EB510FE4
:100FA80024BFA3EB510340EA5C00B3EB910F24BFCD
:100FB800A3EB910340EA9C00B3EBD10F24BFA3EB52
:100FC800D10340EADC001B0118BF5FEA1C1CE0D11A
:100FD800FD2A3FF650AF8B4240EBC25008BF20F0CD
:100FE800010070470CF0004C4CEA50207F32C2BF21
:100FF800D2F1FF0340EAC250704740F400004FF0BE
:101008000003013A37E792F0000F00F0004C02BFEE
:10101800400010F4000F013AF9D040EA0C0093F0B8
:10102800000F01F0004C02BF490011F4000F013B12
:10103800F9D041EA0C0195E70CEAD15392EA0C0F7A
:1010480008D142027FF47DAF93EA0C0F7FF470AFB2
:10105800084676E793EA0C0F04D14B023FF44CAFF5
:1010680008466EE730F0004C18BF31F0004CCAD18A
:1010780030F000427FF45CAF31F000437FF43CAFC6
:101088005FE700BF4FF0FF3C06E000BF4FF0010CE8
:1010980002E000BF4FF0010C4DF804CD4FEA4002CA
:1010A8004FEA41037FEA226C18BF7FEA236C11D014
:1010B80001B052EA530C18BF90EA010F58BFB2EBC7
:1010C800030088BFC81738BF6FEAE17018BF40F047
:1010D800010070477FEA226C02D15FEA402C05D1FB
:1010E8007FEA236CE4D15FEA412CE1D05DF8040B80
:1010F800704700BF844608466146FFE70FB5FFF713
:10110800C9FF002848BF10F1000F0FBD4DF808EDCA
:10111800FFF7F4FF0CBF012000205DF808FB00BFBB
:101128004DF808EDFFF7EAFF34BF012000205DF815
:1011380008FB00BF4DF808EDFFF7E0FF94BF012062
:1011480000205DF808FB00BF4DF808EDFFF7D2FF5F
:1011580094BF012000205DF808FB00BF4DF808EDA2
:10116800FFF7C8FF34BF012000205DF808FB00BF6F
:1011780042000ED2B2F1FE4F0BD34FF09E03B3EBF9
:10118800126209D44FEA002343F0004323FA02F025
:1011980070474FF00000704712F1610F01D1420211
:1011A80002D14FF0FF3070474FF00000704700BF8A
:1011B80053B94AB9002908BF00281CBF4FF0FF31B6
:1011C8004FF0FF3000F076B9ADF1080C6DE904CEB0
:1011D80000F006F8DDF804E0DDE9022304B070470A
:1011E8002DE9F047089E0D4604468846002B4DD150
:1011F8008A42944668D9B2FA82F252B101FA02F3ED
:10120800C2F1200120FA01F10CFA02FC41EA0308BC
:1012180094404FEA1C41B8FBF1F71FFA8CFE01FB22
:10122800178807FB0EF0230C43EA084398420AD9B3
:101238001CEB030307F1FF3580F01E81984240F252
:101248001B81023F63441B1AB3FBF1F001FB10330F
:1012580000FB0EFEA4B244EA0344A6450AD91CEBDF
:10126800040400F1FF3380F00981A64540F20681AD
:10127800644402380021A4EB0E0440EA07401EB182
:101288000023D440C6E90043BDE8F0878B4208D963
:10129800002E00F0EE800021C6E900050846BDE8F2
:1012A800F087B3FA83F100294AD1AB4202D38242D4
:1012B80000F2FC80841A65EB030301209846002E97
:1012C800E2D0C6E90048DFE702B9FFDEB2FA82F2EF
:1012D800002A40F09180A1EB0C0001214FEA1C4745
:1012E8001FFA8CFEB0FBF7F307FB1300250C45EA49
:1012F80000450EFB03F0A84208D91CEB050503F1D5
:10130800FF3802D2A84200F2CE8043462D1AB5FB20
:10131800F7F007FB10550EFB00FEA4B244EA0544A3
:10132800A64508D91CEB040400F1FF3502D2A645F6
:1013380000F2B6802846A4EB0E0440EA03409EE77C
:10134800C1F120078B4022FA07FC4CEA030C25FA6E
:1013580007FA4FEA1C49BAFBF9F820FA07F309FB28
:1013680018AA8D401FFA8CFE1D4300FA01F308FBF2
:101378000EF02C0C44EA0A44A04202FA01F20BD9FE
:101388001CEB040408F1FF3A80F08880A04240F288
:101398008580A8F102086444241AB4FBF9F009FB1B
:1013A800104400FB0EFEADB245EA0444A64508D938
:1013B8001CEB040400F1FF356CD2A6456AD902384B
:1013C800644440EA0840A0FB0295A4EB0E04AC423A
:1013D800C846AE4656D353D0002E69D0B3EB0802A8
:1013E80064EB0E0422FA01F304FA07F71F43CC401A
:1013F800C6E90074002147E70CFA02FCC2F120019B
:1014080025FA01F34FEA1C4720FA01F195400D43F4
:10141800B3FBF7F107FB11331FFA8CFE280C40EAE7
:10142800034001FB0EF3834204FA02F408D91CEBD3
:10143800000001F1FF382FD283422DD902396044D0
:10144800C01AB0FBF7F307FB1300ADB245EA00453D
:1014580003FB0EF0A84208D91CEB050503F1FF3881
:1014680016D2A84214D9023B6544281A43EA01411E
:1014780038E73146304607E72F46E4E61846F9E6EE
:101488004B45A9D2B9EB020865EB0C0E0138A3E76E
:101498004346EAE7284694E74146D1E7D0467BE74A
:1014A8006444023847E7023B65442FE7084606E7ED
:1014B8003146E9E6704700BF80B485B000AF786078
:1014C8000123FB7300BF1437BD4680BC7047000082
:1014D80080B582B000AF78607B68002B20D10021F6
:1014E800154806F0E7FE0021134805F0A3FF042184
:1014F800114806F0DFFE04210F4805F09BFF00218C
:101508000E4806F0D7FE00210C4805F093FF0C4B5F
:1015180000225A630A4B00229A630A4B00225A633C
:10152800094B0A4A1A6000BF7B689AB2084B1A80B6
:1015380000BF0837BD4680BD10020020A002002071
:101548000000014000040140080000200000704134
:101558003004002080B500AF024807F05BF800BFF8
:1015680080BD00BFC003002080B483B000AF7860A6
:1015780000BF0C37BD4680BC7047000090B583B0F3
:1015880000AF7860154B1B6879681846FFF72AFC8E
:10159800034613491846FFF725FC03461C46114B22
:1015A800DB6A01330F4A926A013202FB03F30E4AE7
:1015B800B2FBF3F31846FFF7BDFB03461946204676
:1015C800FFF7C4FC03461A46084B1A60084A7B68B2
:1015D800136000BF0C37BD4690BD00BF040000205B
:1015E8000000B44300200040008793032404002037
:1015F80028040020000000002DE9B04382B000AFAD
:101608007860B74B1B684FF000011846FFF79CFD48
:101618000346002B08D0B34B1B6819467868FFF7C0
:10162800D9FA03467B6007E0AE4B1B681946786819
:10163800FFF7CEFA03467B60AB4B1B681846FEF7F4
:1016480023FF04460D467868FEF71EFFA2A3D3E9E0
:101658000023FEF771FF02460B46104619464FF06D
:101668000002A24BFFF792F802460B4610461946B5
:1016780007F036FD804689467868FEF705FF96A391
:10168800D3E90023FEF758FF02460B4610461946D9
:101698004FF00002964BFFF779F802460B461046CA
:1016A800194607F01DFD4FF00002924BFFF76EF848
:1016B80002460B4640464946FEF788FD02460B4661
:1016C80020462946FEF738FF02460B4610461946C3
:1016D800FFF72AFA0346884A1360834B1B681846AB
:1016E800FEF7D2FE04460D4684497868FFF772FA81
:1016F80003461846FEF7C8FE77A3D3E90023FEF792
:101708001BFF02460B46104619464FF00002774B66
:10171800FFF73CF802460B461046194607F0E0FC76
:101728008046894675497868FFF754FA0346184693
:10173800FEF7AAFE68A3D3E90023FEF7FDFE0246E2
:101748000B46104619464FF00002694BFFF71EF88A
:1017580002460B461046194607F0C2FC4FF000023D
:10176800644BFFF713F802460B4640464946FEF71E
:101778002DFD02460B4620462946FEF7DDFE0246B1
:101788000B4610461946FFF7CFF903465C4A13602B
:10179800554B1B681846FEF777FE04460D46594917
:1017A8007868FFF717FA03461846FEF76DFE4AA356
:1017B800D3E90023FEF7C0FE02460B461046194641
:1017C8004FF00002494BFEF7E1FF02460B46104678
:1017D800194607F085FC804689464A497868FFF72C
:1017E800F9F903461846FEF74FFE3BA3D3E9002359
:1017F800FEF7A2FE02460B46104619464FF00002BD
:101808003B4BFEF7C3FF02460B461046194607F04E
:1018180067FC4FF00002374BFEF7B8FF02460B4655
:1018280040464946FEF7D2FC02460B46204629466A
:10183800FEF782FE02460B4610461946FFF774F97A
:101848000346314A13602C4B1B684FF000011846C1
:10185800FFF77AFC0346002B10D000212B4806F036
:1018680029FD254B1B682A4C1846FFF781FC0346C7
:1018780063630021254805F015FD11E00021234888
:1018880005F0D8FD1C4B1B6883F00043204C18461C
:10189800FFF76EFC0346636300211C4806F050FC0A
:1018A800174B1B684FF000011846FFF74DFC034625
:1018B800002B2FD00421154806F0FCFC104B1B68A8
:1018C800134C1846FFF754FC0346A36304210F4842
:1018D80005F0E8FC30E000BF182D4454FB21094016
:1018E800240400200800002000000020008066403A
:1018F80000004E40000010400C0400200000F042A0
:10190800100400200000704314040020100200207E
:10191800000001400421244805F08CFD234B1B687E
:1019280083F00043224C1846FFF722FC0346A363CA
:1019380004211D4806F004FC1E4B1B684FF00001F3
:101948001846FFF701FC0346002B10D000211A4867
:1019580006F0B0FC174B1B68184C1846FFF708FC3C
:10196800034663630021144805F09CFC11E0002144
:10197800114805F05FFD0F4B1B6883F000430F4CC7
:101988001846FFF7F5FB0346636300210A4806F093
:10199800D7FB074B00225A62084B00225A6200BF4D
:1019A8000837BD46BDE8B0831002002010040020AF
:1019B8000000014014040020A0020020000401409F
:1019C80080B582B000AF78607B68674A934240F088
:1019D8009680664B1B88013B052B00F2928001A282
:1019E80052F823F0051A0008B31A0008B31A0008C1
:1019F800B31A0008F31A0008B31A00085C4B1B68F6
:101A08005C4A126811461846FFF7A8FB0346002BEC
:101A18000CD0594B1B68574A126811461846FFF7F5
:101A2800D9F803461A46544B1A6025E0504B1B68F8
:101A38004FF000011846FFF769FB0346002B1BD146
:101A48004C4B1B684A4A126811461846FFF7C0F803
:101A580003461A46484B1B6819461046FFF7BAF862
:101A680003461A46444B1A60414B4FF000021A6075
:101A7800424B4FF000021A603F4B1B681846FEF7B6
:101A880003FD4FF000023E4B07F070FB02460B4689
:101A980010461946FFF748F80346374A1360364B95
:101AA8001B681846FFF7A8FD2CE0334B1B68314A2A
:101AB800126811461846FFF78DF803461846FEF7D8
:101AC800E3FC4FF000022E4B07F050FB02460B469A
:101AD80010461946FFF728F80346274A1360264B95
:101AE8001B681846FFF788FD0CE0264B4FF0804234
:101AF8001A60214B1B681846FFF77EFD02E000BF05
:101B080000E000BF7B68002B29D100211E4806F0A9
:101B1800D1FB00211C4805F08DFC04211A4806F071
:101B2800C9FB0421184805F085FC0021174806F078
:101B3800C1FB0021154805F07DFC154B00225A63B6
:101B4800134B00229A63134B00225A63104B002256
:101B58005A62104B00225A620F4B00225A6200BF91
:101B68000837BD4680BD00BF780300203004002040
:101B780020040020240400201C0400200800002069
:101B8800008076400000002010020020A002002003
:101B9800000001400004014000200040F8B500AFFB
:101BA800734B4FF000021A602021724803F084F84A
:101BB80003461A46704B1A7001216E4803F07CF8F0
:101BC80003461A466D4B1A7002216A4803F074F8EE
:101BD80003461A466A4B1A70674B1B78012B78D15B
:101BE800664B1B78002B74D1654B1B78012B70D189
:101BF800644B01221A80644B1B684FF000011846A1
:101C0800FFF7A2FA0346002B31D0604B5C68604BAB
:101C18001D68604BDA6A5F4B5B6AD31A1846FFF798
:101C280089F80246584B1B6819461046FFF7DAF840
:101C380003461E46574BDB6A1846FFF77BF80346F8
:101C480019463046FFF782F9034619462846FEF73B
:101C5800BFFF034619462046FEF7BAFF03461A4659
:101C6800434B1A60494B9B684B4A136031E0474B22
:101C78005B68494A1360464B1C68464BDA6A454B19
:101C88005B6AD31A1846FFF755F802463E4B1B68A5
:101C980019461046FFF7A6F803461D463D4BDB6A7A
:101CA8001846FFF747F8034619462846FFF74EF946
:101CB800034619462046FEF78BFF03461A46334B68
:101CC8009B6819461046FEF783FF03461A46284BC1
:101CD8001A60294B1B78012B40F09280274B1B7808
:101CE800002B40F08D80264B1B78002B40F088801D
:101CF800244B02221A80244B1B684FF0000118461F
:101D0800FFF722FA0346002B48D0204B9C68204B53
:101D18001D68204BDA6A1F4B5B6AD31A1846FFF717
:101D280009F80246184B1B6819461046FFF75AF87F
:101D380003461E46174BDB6A1846FEF7FBFF0346B1
:101D480019463046FFF702F9034619462846FEF7BA
:101D58003FFF034619462046FEF73AFF03461A4658
:101D6800034B1A60094BDB680B4A136048E000BF5D
:101D780008040020000002402C0400202D0400204C
:101D88002E04002032040020240400200C0000202F
:101D98001C04002000200040180400207E4B9B6893
:101DA8007E4A13607E4B1C687E4BDA6A7D4B5B6A09
:101DB800D31A1846FEF7BEFF02467B4B1B6819462E
:101DC8001046FFF70FF803461D46764BDB6A1846A8
:101DD800FEF7B0FF034619462846FFF7B7F8034653
:101DE80019462046FEF7F4FE03461A466A4BDB689E
:101DF80019461046FEF7ECFE03461A466B4B1A606E
:101E08006B4B1B78012B78D16A4B1B78012B74D153
:101E1800694B1B78002B70D1684B03221A80624BE8
:101E28001B684FF000011846FFF78EF90346002B98
:101E380031D0594BDC685A4B1D685A4BDA6A594BFA
:101E48005B6AD31A1846FEF775FF0246564B1B68A5
:101E580019461046FEF7C6FF03461E46514BDB6A7D
:101E68001846FEF767FF034619463046FFF76EF837
:101E7800034619462846FEF7ABFE03461946204698
:101E8800FEF7A6FE03461A46484B1A60424B1B69EA
:101E9800424A136031E0404BDB68404A1360404BD4
:101EA8001C68404BDA6A3F4B5B6AD31A1846FEF748
:101EB80041FF02463C4B1B6819461046FEF792FF4D
:101EC80003461D46374BDB6A1846FEF733FF0346C9
:101ED80019462846FFF73AF8034619462046FEF702
:101EE80077FE03461A462C4B1B6919461046FEF727
:101EF8006FFE03461A462D4B1A602D4B1B78002B9C
:101F080040F090802B4B1B78012B40F08B802A4BA4
:101F18001B78002B40F08680284B04221A80224B25
:101F28001B684FF000011846FFF70EF90346002B17
:101F380046D0194B1C691A4B1D681A4BDA6A194BA3
:101F48005B6AD31A1846FEF7F5FE0246164B1B6865
:101F580019461046FEF746FF03461E46114BDB6A3C
:101F68001846FEF7E7FE034619463046FEF7EEFF31
:101F7800034619462846FEF72BFE03461946204617
:101F8800FEF726FE03461A46084B1A60024B5B69A9
:101F9800024A136046E000BF0C000020180400202D
:101FA8001C04002000200040240400200804002015
:101FB8002C0400202D0400202E04002032040020D0
:101FC8007E4B1B697E4A13607E4B1C687E4BDA6A27
:101FD8007D4B5B6AD31A1846FEF7ACFE02467B4B74
:101FE8001B6819461046FEF7FDFE03461D46764B54
:101FF800DB6A1846FEF79EFE034619462846FEF79A
:10200800A5FF034619462046FEF7E2FD03461A4699
:102018006A4B5B6919461046FEF7DAFD03461A4615
:102028006B4B1A606B4B1B78002B78D16A4B1B7873
:10203800012B74D1694B1B78012B70D1684B052299
:102048001A80624B1B684FF000011846FFF77CF8B6
:102058000346002B31D0594B5C695A4B1D685A4BCB
:10206800DA6A594B5B6AD31A1846FEF763FE0246D2
:10207800564B1B6819461046FEF7B4FE03461E462B
:10208800514BDB6A1846FEF755FE034619463046A3
:10209800FEF75CFF034619462846FEF799FD0346FE
:1020A80019462046FEF794FD03461A46484B1A6027
:1020B800424B9B69424A136031E0404B5B69404A9E
:1020C8001360404B1C68404BDA6A3F4B5B6AD31A7B
:1020D8001846FEF72FFE02463C4B1B681946104671
:1020E800FEF780FE03461D46374BDB6A1846FEF7AF
:1020F80021FE034619462846FEF728FF03461946DF
:102108002046FEF765FD03461A462C4B9B69194687
:102118001046FEF75DFD03461A462D4B1A602D4BFF
:102128001B78002B40F090802B4B1B78002B40F045
:102138008B802A4B1B78012B40F08680284B062287
:102148001A80224B1B684FF000011846FEF7FCFF6F
:102158000346002B46D0194B9C691A4B1D681A4B35
:10216800DA6A194B5B6AD31A1846FEF7E3FD024692
:10217800164B1B6819461046FEF734FE03461E46EA
:10218800114BDB6A1846FEF7D5FD03461946304663
:10219800FEF7DCFE034619462846FEF719FD0346FE
:1021A80019462046FEF714FD03461A46084B1A60E6
:1021B800024B5B68024A136046E000BF0C00002037
:1021C800180400201C0400200020004024040020E3
:1021D800080400202C0400202D0400202E040020D8
:1021E80032040020304B9B69304A1360304B1C6826
:1021F800304BDA6A2F4B5B6AD31A1846FEF79AFD02
:1022080002462D4B1B6819461046FEF7EBFD0346A8
:102218001D46284BDB6A1846FEF78CFD0346194617
:102228002846FEF793FE034619462046FEF7D0FCE3
:1022380003461A461C4B5B6819461046FEF7C8FC55
:1022480003461A461D4B1A601D4B1B78012B10D1F3
:102258001C4B1B78012B0CD11B4B1B78012B08D175
:102268001A4B07221A800020FFF7AAFB0020FFF76D
:102278002FF9134B1B78002B10D1124B1B78002B16
:102288000CD1114B1B78002B08D1104B08221A8057
:102298000020FFF795FB0020FFF71AF90020FFF751
:1022A8008FFB00BFF8BD00BF0C0000201804002001
:1022B8001C04002000200040240400200804002002
:1022C8002C0400202D0400202E04002032040020BD
:1022D80080B582B000AF0346FB80FB88022B02DC8E
:1022E800002B02DC04E0202B02D1FFF757FC00BFD3
:1022F8008021124802F0E0FC0346012B1AD1104855
:1023080004F0FBFE00210F4805F0D4FF00210D4822
:1023180005F090F804210B4805F0CCFF042109488A
:1023280005F088F80021084805F0C4FF0021064898
:1023380005F080F800BF0837BD4680BD00000240A8
:102348007803002010020020A002002000000000F6
:1023580080B500AF01F08CF800F004F900F0DAFB6A
:1023680000F0A2FB00F0E0F900F08AFA00F028FB88
:1023780000F03EF900F0AAF900F06CFB03226E4968
:102388006E4801F037FA6E4B1B686FF001021A6154
:102398000320FFF79DF86B48FFF7F0F86A4B1B78AE
:1023A800002BFBD0644B5B881846FEF7C7FC02463F
:1023B800664B1B6819461046FEF714FD034618467F
:1023C800FEF762F858A3D3E90023FEF7B5F80246F2
:1023D8000B461046194656A3D3E90023FEF7ACF87E
:1023E80002460B46104619464FF00002584BFEF7BE
:1023F800CDF902460B46104619464FF00002554BE0
:10240800FEF7C4F902460B4610461946FEF76CFB68
:1024180003469AB2504B1A80474B1B881846FEF762
:102428008DFC0246494B1B6819461046FEF7DAFC3C
:1024380003461846FEF728F83BA3D3E90023FEF726
:102448007BF802460B461046194639A3D3E9002308
:10245800FEF772F802460B46104619464FF0000286
:102468003B4BFEF793F902460B46104619464FF0D0
:102478000002384BFEF78AF902460B461046194609
:10248800FEF732FB03469AB2344B1A802A4B9B88DC
:102498001846FEF753FC02462C4B1B68194610469B
:1024A800FEF7A0FC03461846FDF7EEFF1EA3D3E98E
:1024B8000023FEF741F802460B46104619461CA3B6
:1024C800D3E90023FEF738F802460B4610461946B2
:1024D8004FF000021E4BFEF759F902460B46104614
:1024E80019464FF000021B4BFEF750F902460B4607
:1024F80010461946FEF7F8FA03469AB2184B1A80A6
:10250800154B1B881A46154B1B881344144A12880E
:102518001344B3F5487F02DD0020FEF7D9FF0A4BCC
:1025280000221A703AE700BF6666666666660A4069
:10253800CDCCCCCCCCCC304034040020B40000202E
:102548001002002000002042400400202400002047
:10255800000024400000B0403A0400203C04002061
:102568003E04002080B592B000AF07F11803302276
:102578000021184606F0ACFD3B1D00221A605A6087
:102588009A60DA601A610123BB610123FB610223AF
:102598003B634FF480037B630823BB63F023FB6337
:1025A80002233B6404237B6407F11803184604F0F4
:1025B800BBF80346002B01D000F048FB0F237B60DB
:1025C8000223BB600023FB604FF4A0533B614FF430
:1025D80080537B613B1D0321184604F0F9FA03463A
:1025E800002B01D000F032FB00BF4837BD4680BD4C
:1025F80080B584B000AF3B4600221A605A609A60EA
:10260800DA602F4B2F4A1A602D4B00225A602C4B50
:1026180000229A602A4B01221A61294B01221A765C
:10262800274B002283F82020254B0022DA62244B16
:10263800254A9A62224B0022DA60214B0322DA6192
:102648001F4B012283F830201D4B00225A611C4881
:1026580000F07CFF0346002B01D000F0F7FA0423BA
:102668003B6001237B600723BB603B461946144847
:1026780001F0BAF90346002B01D000F0E7FA0D2368
:102688003B6002237B603B4619460D4801F0ACF9DC
:102698000346002B01D000F0D9FA0F233B60032337
:1026A8007B603B461946064801F09EF90346002B1D
:1026B80001D000F0CBFA00BF1037BD4680BD00BF87
:1026C800B4000020002001400100000F80B500AFD9
:1026D800124B134A1A60114B124A5A600F4B0022D0
:1026E8009A600E4B0022DA600C4B4FF480421A615C
:1026F8000A4B00225A61094B00229A61074B0022BB
:10270800DA61064B00221A62044802F005FB034610
:10271800002B01D000F09AFA00BF80BD5C010020B8
:10272800005C0040A086010080B596B000AF07F1BC
:10273800480300221A605A609A60DA6007F1400381
:1027480000221A605A6007F1240300221A605A60B6
:102758009A60DA601A615A619A613B1D2022002151
:10276800184606F0B5FC444B444A1A60424B77229F
:102778005A60414B20229A603F4B3122DA603E4B2F
:1027880000221A613C4B00225A613B4B00229A619D
:10279800394804F063FC0346002B01D000F056FAD8
:1027A8004FF48053BB6407F148031946324805F0DB
:1027B800D7F80346002B01D000F048FA2E4804F061
:1027C80019FD0346002B01D000F040FA00233B64BA
:1027D80000237B6407F140031946274805F0C8FD2C
:1027E8000346002B01D000F031FA60237B620023FE
:1027F800BB620023FB6200233B6300237B6300234F
:10280800BB630023FB6307F12403002219461A481F
:1028180004F0E4FF0346002B01D000F017FA07F19B
:10282800240304221946144804F0D8FF0346002B59
:1028380001D000F00BFA00237B600023BB6000236B
:10284800FB6000233B6100237B614FF40053BB61B5
:1028580000233B623B1D1946074805F003FE03466B
:10286800002B01D000F0F2F9034800F039FC00BF5A
:102878005837BD4680BD00BF10020020000001404F
:1028880080B596B000AF07F1480300221A605A607D
:102898009A60DA6007F1400300221A605A6007F173
:1028A800240300221A605A609A60DA601A615A6139
:1028B8009A613B1D20220021184606F009FC3E4B78
:1028C8003E4A1A603C4B77225A603B4B20229A6062
:1028D800394B3122DA60384B00221A61364B00221C
:1028E8005A61354B00229A61334804F0B7FB03461E
:1028F800002B01D000F0AAF94FF48053BB6407F114
:10290800480319462C4805F02BF80346002B01D044
:1029180000F09CF9284804F06DFC0346002B01D018
:1029280000F094F900233B6400237B6407F1400323
:102938001946214805F01CFD0346002B01D000F084
:1029480085F960237B620023BB620023FB620023BE
:102958003B6300237B630023BB630023FB6307F116
:10296800240300221946144804F038FF0346002BBC
:1029780001D000F06BF900237B600023BB600023CB
:10298800FB6000233B6100237B614FF40053BB6174
:1029980000233B623B1D1946074805F063FD0346CB
:1029A800002B01D000F052F9034800F099FB00BF5A
:1029B8005837BD4680BD00BFA0020020000401407A
:1029C80080B588B000AF3B1D00221A605A609A603B
:1029D800DA601A615A619A611C4B1D4A1A601B4BD6
:1029E8003B225A60194B00229A60184B40F2F312AE
:1029F800DA60164B00221A61144B00229A611348C0
:102A080004F02CFB0346002B01D000F01FF90F48FF
:102A180004F0A1FB0346002B01D000F017F90023B6
:102A28007B600023BB600023FB6000237B613B1DB0
:102A380000221946054804F075FE0346002B01D014
:102A480000F004F900BF2037BD4680BD78030020A0
:102A58000020004080B500AF114B124A1A60104B9D
:102A68004FF4E1325A600E4B00229A600C4B002260
:102A7800DA600B4B00221A61094B0C225A61084B91
:102A880000229A61064B0022DA61054805F071FDC3
:102A98000346002B01D000F0D9F800BF80BD00BF6D
:102AA800C00300200048004080B582B000AF00237A
:102AB8007B60174B1B6B164A43F400131363144BCC
:102AC8001B6B03F400137B607B6800233B60104B97
:102AD8001B6B0F4A43F4800313630D4B1B6B03F40A
:102AE80080033B603B68002200210F2001F005FBBA
:102AF8000F2001F01EFB00220021382001F0FDFA12
:102B0800382001F016FB00BF0837BD4680BD00BF66
:102B18000038024080B58CB000AF07F11C030022DA
:102B28001A605A609A60DA601A610023BB61444BEC
:102B38001B6B434A43F080031363414B1B6B03F049
:102B48008003BB61BB6900237B613D4B1B6B3C4A27
:102B580043F0040313633A4B1B6B03F004037B61DC
:102B68007B6900233B61364B1B6B354A43F00103FD
:102B78001363334B1B6B03F001033B613B69002379
:102B8800FB602F4B1B6B2E4A43F0020313632C4B45
:102B98001B6B03F00203FB60FB680023BB60284B40
:102BA8001B6B274A43F010031363254B1B6B03F081
:102BB8001003BB60BB6800237B60214B1B6B204A62
:102BC80043F0080313631E4B1B6B03F008037B6081
:102BD8007B682323FB614FF444133B6200237B6231
:102BE80007F11C031946174801F0C8FE8023FB6152
:102BF8004FF488133B6200237B6207F11C031946DC
:102C0800114801F0BBFE00220021062001F075FAF0
:102C1800062001F08EFA00220021072001F06DFA4B
:102C2800072001F086FA00220021172001F065FA3A
:102C3800172001F07EFA00BF3037BD4680BD00BFC7
:102C480000380240000002400008024080B400AF93
:102C580072B600BFFEE780B483B000AF786000BFF3
:102C68000C37BD4680BC704780B483B000AF0023EA
:102C78007B600F4B5B6C0E4A43F4804353640C4BF0
:102C88005B6C03F480437B607B6800233B60084BEC
:102C98001B6C074A43F080531364054B1B6C03F00D
:102CA80080533B603B6800BF0C37BD4680BC704713
:102CB8000038024080B58CB000AF786007F11C0383
:102CC80000221A605A609A60DA601A617B681B6891
:102CD8004D4A934240F094800023BB614B4B5B6CA0
:102CE8004A4A43F480735364484B5B6C03F4807323
:102CF800BB61BB6900237B61444B1B6B434A43F0B8
:102D080004031363414B1B6B03F004037B617B6972
:102D180000233B613D4B1B6B3C4A43F001031363AB
:102D28003A4B1B6B03F001033B613B690023FB60DB
:102D3800364B1B6B354A43F002031363334B1B6B53
:102D480003F00203FB60FB683823FB6103233B624B
:102D580000237B6207F11C0319462D4801F00EFE83
:102D68001823FB6103233B6200237B6207F11C03EA
:102D78001946284801F002FE0223FB6103233B6247
:102D880000237B6207F11C031946234801F0F6FD76
:102D9800224B234A1A60214B00225A601F4B002203
:102DA8009A601E4B0022DA601C4B4FF480621A6155
:102DB8001A4B4FF400625A61184B4FF400529A6153
:102DC800164B4FF48072DA61144B00221A62134BCF
:102DD80000225A62114801F0C7F90346002B01D0BE
:102DE800FFF734FF7B680D4A9A630C4A7B6893634C
:102DF80000220121122001F080F9122001F099F936
:102E080000BF3037BD4680BD002001400038024079
:102E1800000802400000024000040240FC000020BC
:102E28001064024080B58AB000AF786007F11403DF
:102E380000221A605A609A60DA601A617B681B681F
:102E4800444A934240F0828000233B61424B1B6B13
:102E5800414A43F0040313633F4B1B6B03F0040325
:102E68003B613B690023FB603B4B1B6B3A4A43F0D9
:102E780001031363384B1B6B03F00103FB60FB6812
:102E88004FF400737B611223BB610023FB610323B2
:102E98003B6204237B6207F1140319462F4801F0B3
:102EA8006DFD4FF480737B611223BB610023FB61CE
:102EB80003233B6204237B6207F114031946284865
:102EC80001F05CFD0023BB60234B1B6C224A43F4DA
:102ED80000031364204B1B6C03F40003BB60BB6846
:102EE800204B214A1A601F4B4FF0C0625A601D4B9D
:102EF80040229A601B4B0022DA601A4B4FF4806222
:102F08001A61184B00225A61164B00229A61154B20
:102F18000022DA61134B00221A62124B00225A6215
:102F2800104801F021F90346002B01D0FFF78EFE6F
:102F38007B680C4A5A630B4A7B6893630022002122
:102F4800482001F0DAF8482001F0F3F800BF2837EC
:102F5800BD4680BD005C00400038024000080240C9
:102F680000000240B00100207060024080B586B0C9
:102F780000AF78607B681B68404A934216D10023F3
:102F88007B613F4B5B6C3E4A43F0010353643C4B0F
:102F98005B6C03F001037B617B690022002119202F
:102FA80001F0ABF8192001F0C4F862E07B681B68F7
:102FB800344A934226D100233B61314B5B6C304A43
:102FC80043F0020353642E4B5B6C03F002033B6136
:102FD8003B69002200212B2001F08FF82B2001F003
:102FE800A8F8002200212C2001F087F82C2001F0FD
:102FF800A0F8002200212D2001F07FF82D2001F0FB
:1030080098F836E07B681B681F4A934216D1002364
:10301800FB601B4B1B6C1A4A43F080031364184B6C
:103028001B6C03F08003FB60FB68002200212C204E
:1030380001F063F82C2001F07CF81AE07B681B682B
:10304800124A934215D10023BB600D4B1B6C0C4AEE
:1030580043F4807313640A4B1B6C03F48073BB60E6
:10306800BB68002200212D2001F047F82D2001F037
:1030780060F800BF1837BD4680BD00BF00000140A2
:103088000038024000040140001C004000200040BD
:1030980080B584B000AF78607B681B680E4A9342A5
:1030A80015D10023FB600D4B1B6C0C4A43F0400309
:1030B80013640A4B1B6C03F04003FB60FB6800229F
:1030C80000212B2001F019F82B2001F032F800BF65
:1030D8001037BD4680BD00BF0018004000380240D0
:1030E80080B58AB000AF786007F1140300221A6037
:1030F8005A609A60DA601A617B681B68334A9342A7
:103108001FD100233B61324B1B6B314A43F0100344
:1031180013632F4B1B6B03F010033B613B694FF4A8
:1031280070637B610223BB610023FB6100233B6268
:1031380001237B6207F114031946264801F01EFC9F
:1031480040E07B681B68244A93423BD10023FB6024
:103158001F4B1B6B1E4A43F0010313631C4B1B6B75
:1031680003F00103FB60FB680023BB60184B1B6B7B
:10317800174A43F004031363154B1B6B03F0040356
:10318800BB60BB6880237B610223BB610023FB61BA
:1031980000233B6203237B6207F1140319460F489F
:1031A80001F0ECFB40237B610223BB610023FB6140
:1031B80000233B6203237B6207F114031946084886
:1031C80001F0DCFB00BF2837BD4680BD0000014090
:1031D8000038024000100240000401400000024094
:1031E8000008024080B58AB000AF786007F1140388
:1031F80000221A605A609A60DA601A617B681B685C
:103208001D4A934234D100233B611C4B1B6C1B4A63
:1032180043F480231364194B1B6C03F480233B6134
:103228003B690023FB60154B1B6B144A43F00803F2
:103238001363124B1B6B03F00803FB60FB684FF42E
:1032480040737B610223BB610023FB6103233B6264
:1032580007237B6207F114031946094801F08EFB26
:1032680000220021272000F048FF272000F061FFFE
:1032780000BF2837BD4680BD0048004000380240E6
:10328800000C024080B400AFFEE780B400AFFEE758
:1032980080B400AFFEE780B400AFFEE780B400AFB3
:1032A800FEE780B400AF00BFBD4680BC704780B465
:1032B80000AF00BFBD4680BC704780B400AF00BF00
:1032C800BD4680BC704780B500AF00F023F900BF51
:1032D80080BD80B500AF012001F006FD00BF80BDB4
:1032E80080B500AF022001F0FFFC00BF80BD0000E8
:1032F80080B500AF024801F0CFF800BF80BD00BF25
:10330800B001002080B500AF024800F062F900BFAC
:1033180080BD00BFB400002080B500AF202001F0C0
:10332800E3FC802001F0E0FC00BF80BD80B500AF69
:10333800024804F0EFF800BF80BD00BF1002002073
:1033480080B500AF024804F0E5F800BF80BD00BFBB
:103358005802002080B500AF024805F05BF900BFB5
:1033680080BD00BFC003002080B500AF034804F053
:10337800D1F8034804F0CEF800BF80BDA0020020B9
:10338800E802002080B500AF034804F0C3F8034802
:1033980004F0C0F800BF80BDA00200203003002068
:1033A80080B500AF0E4804F0B5F80E4804F0B2F846
:1033B8000C4B1B681B6903F00103012B0ED1094B51
:1033C8001B68DB6803F00103012B07D1054B1B6861
:1033D8006FF001021A610348FEF7F2FA00BF80BDE0
:1033E800A00200207803002080B500AF024801F059
:1033F80053F800BF80BD00BFFC00002080B500AFBF
:10340800024801F0E1FD00BF80BD00BF5C01002063
:1034180080B400AF00BFBD4680BC7047DFF834D031
:10342800FFF7F6FF0C480D490D4A002302E0D45877
:10343800C4500433C4188C42F9D30A4A0A4C0023F6
:1034480001E013600432A242FBD305F01DFEFEF733
:103458007FFF704700000220000000209800002035
:10346800C8A600089800002048040020FEE70000D5
:1034780080B500AF0E4B1B680D4A43F40073136010
:103488000B4B1B680A4A43F480631360084B1B68A4
:10349800074A43F480731360032000F023FE0F20D3
:1034A80000F008F8FFF7E0FB0023184680BD00BFD6
:1034B800003C024080B582B000AF7860124B1A68B9
:1034C800124B1B7819464FF47A73B3FBF1F3B2FB36
:1034D800F3F3184600F03BFE0346002B01D001230E
:1034E8000EE07B680F2B0AD8002279684FF0FF3076
:1034F80000F003FE064A7B681360002300E0012306
:1035080018460837BD4680BD28000020300000203E
:103518002C00002080B400AF054B1B781A46054BE1
:103528001B681344034A136000BFBD4680BC704744
:10353800300000204404002080B400AF024B1B6818
:103548001846BD4680BC70474404002080B584B04E
:1035580000AF78600023FB737B68002B01D1012347
:1035680033E07B681B6C002B09D17868FFF7A2FB5E
:103578007B6800225A647B68002283F83C207B68C1
:103588001B6C03F01003002B18D17B681B6C23F411
:10359800885323F0020343F002027B681A647868B8
:1035A80000F042FB7B6800225A647B681B6C23F0A6
:1035B800030343F001027B681A6401E00123FB73F3
:1035C8007B68002283F83C20FB7B18461037BD46F9
:1035D80080BD80B586B000AF786000237B61002392
:1035E8003B617B681B681B68FB607B681B685B68CA
:1035F800BB60FB6803F002037B61BB6803F0200338
:103608003B617B69002B49D03B69002B46D07B6826
:103618001B6C03F01003002B05D17B681B6C43F473
:1036280000727B681A647B681B689B6803F04053D0
:10363800002B2BD17B681B7E002B27D17B681B6856
:10364800DB6A03F47003002B06D07B681B689B6859
:1036580003F48063002B19D17B681B685A687B6868
:103668001B6822F020025A607B681B6C23F480726E
:103678007B681A647B681B6C03F48053002B05D1AC
:103688007B681B6C43F001027B681A647868FDF75D
:1036980013FF7B681B686FF012021A60FB6803F067
:1036A80004037B61BB6803F080033B617B69002BEB
:1036B80057D03B69002B54D07B681B6C03F0100378
:1036C800002B05D17B681B6C43F400527B681A649D
:1036D8007B681B689B6803F44013002B39D17B6817
:1036E8001B689B6B03F44013002B06D07B681B6898
:1036F8009B6803F48063002B2BD17B681B685B6895
:1037080003F48063002B24D17B681B689B6803F05B
:103718004053002B1DD17B681B7E002B19D17B6881
:103728001B685A687B681B6822F080025A607B68B5
:103738001B6C23F480527B681A647B681B6C03F44F
:103748008073002B05D17B681B6C43F001027B68FA
:103758001A64786800F0F0FB7B681B686FF00C0255
:103768001A60FB6803F001037B61BB6803F0400348
:103778003B617B69002B17D03B69002B14D07B6819
:103788001B681B6803F00103012B0DD17B681B6CC0
:1037980043F480327B681A64786800F012F97B6819
:1037A8001B686FF001021A60FB6803F020037B615D
:1037B800BB6803F080633B617B69002B15D03B69D4
:1037C800002B12D07B685B6C43F002027B685A6462
:1037D8007B681B686FF020021A60786800F0FAF8BE
:1037E8007B681B686FF020021A6000BF1837BD465F
:1037F80080BD000080B586B000AFF860B9607A601F
:1038080000237B61FB6893F83C30012B01D1022334
:10381800BCE0FB68012283F83C20FB681B689B68BE
:1038280003F00103012B18D0FB681B689A68FB683A
:103838001B6842F001029A60564B1B68564AA2FB6D
:1038480003239A0C13465B0013447B6102E07B69F7
:10385800013B7B617B69002BF9D1FB681B689B6886
:1038680003F00103012B40F08480FB681B6C23F4F8
:10387800E06323F0010343F48072FB681A64FB6879
:103888001B685B6803F48063002B07D0FB681B6C24
:1038980023F4405343F48052FB681A64FB681B6CA2
:1038A80003F48053B3F5805F06D1FB685B6C23F0AB
:1038B8000602FB685A6402E0FB6800225A64FB684F
:1038C800002283F83C20FB689B6B344ADA63FB6870
:1038D8009B6B334A1A64FB689B6B324ADA64FB6859
:1038E8001B686FF022021A60FB681B685A68FB6845
:1038F8001B6842F080625A60FB681B689A68FB6824
:103908001B6842F480729A60FB68986BFB681B68BE
:103918004C331946BA687B6800F0D4FC224B5B68CC
:1039280003F01F03002B0FD1FB681B689B6803F093
:103938004053002B29D1FB681B689A68FB681B68F9
:1039480042F080429A6020E0FB681B68174A934265
:103958001BD1FB681B689B6803F04053002B14D1F4
:10396800FB681B689A68FB681B6842F080429A6093
:103978000BE0FB681B6C43F01002FB681A64FB68E1
:103988005B6C43F00102FB685A6400231846183741
:10399800BD4680BD2800002083DE1B433D3E000855
:1039A800F73E0008133F00080023014000200140B3
:1039B80080B483B000AF786000BF0C37BD4680BCD0
:1039C800704780B483B000AF786000BF0C37BD4645
:1039D80080BC704780B483B000AF786000BF0C37FC
:1039E800BD4680BC7047000080B485B000AF7860E9
:1039F80039600023FB607B6893F83C30012B01D1D0
:103A0800022303E17B68012283F83C203B681B68A2
:103A1800092B25D97B681B68D9683B681B689BB252
:103A28001A4613465B0013441E3B072202FA03F3AF
:103A3800DA437B681B680A40DA607B681B68D968D0
:103A48003B689A683B681B689BB2184603465B0054
:103A580003441E3B9A407B681B680A43DA6022E0F5
:103A68007B681B6819693B681B689BB21A4613463A
:103A78005B001344072202FA03F3DA437B681B68EE
:103A88000A401A617B681B6819693B689A683B6839
:103A98001B689BB2184603465B0003449A407B6848
:103AA8001B680A431A613B685B68062B24D87B684D
:103AB8001B68596B3B685A6813469B001344053BC7
:103AC8001F2202FA03F3DA437B681B680A405A6331
:103AD8007B681B68596B3B681B689BB218463B6840
:103AE8005A6813469B001344053B00FA03F27B68AF
:103AF8001B680A435A634CE03B685B680C2B24D86C
:103B08007B681B68196B3B685A6813469B00134413
:103B1800233B1F2202FA03F3DA437B681B680A403F
:103B28001A637B681B68196B3B681B689BB2184655
:103B38003B685A6813469B001344233B00FA03F280
:103B48007B681B680A431A6323E07B681B68D96A91
:103B58003B685A6813469B001344413B1F2202FAF4
:103B680003F3DA437B681B680A40DA627B681B68E8
:103B7800D96A3B681B689BB218463B685A6813466B
:103B88009B001344413B00FA03F27B681B680A431D
:103B9800DA627B681B68204A934209D13B681B683C
:103BA800122B05D11D4B5B681C4A43F480035360FC
:103BB8007B681B68184A934223D13B681B68102B0B
:103BC80003D03B681B68112B1BD1144B5B68134A4D
:103BD80043F4000353603B681B68102B11D1104B52
:103BE8001B68104AA2FB03239A0C13469B0013443C
:103BF8005B00FB6002E0FB68013BFB60FB68002B9D
:103C0800F9D17B68002283F83C200023184614373A
:103C1800BD4680BC704700BF002001400023014022
:103C28002800002083DE1B4380B485B000AF786095
:103C38007E4B5B687D4A23F4403353607B4B5A6864
:103C48007B685B68794913434B607B681B685A68DB
:103C58007B681B6822F480725A607B681B6859680D
:103C68007B681B691A027B681B680A435A607B6879
:103C78001B685A687B681B6822F040725A607B6830
:103C88001B6859687B689A687B681B680A435A6096
:103C98007B681B689A687B681B6822F400629A60DC
:103CA8007B681B6899687B68DA687B681B680A43CD
:103CB8009A607B689B6A5E4A934222D07B681B6845
:103CC8009A687B681B6822F070629A607B681B6840
:103CD80099687B689A6A7B681B680A439A607B6864
:103CE8001B689A687B681B6822F040529A607B6860
:103CF8001B6899687B68DA6A7B681B680A439A6064
:103D08000FE07B681B689A687B681B6822F070620A
:103D18009A607B681B689A687B681B6822F040522F
:103D28009A607B681B689A687B681B6822F00202AD
:103D38009A607B681B6899687B681B7E5A007B6861
:103D48001B680A439A607B6893F82030002B27D0C1
:103D58007B681B685A687B681B6842F400625A607B
:103D68007B681B685A687B681B6822F460425A604B
:103D78007B685B6A013B4FF46042FA60FA6892FA2A
:103D8800A2F2BA60BA68B2FA82F2D2B203FA02F1C7
:103D98007B681B685A687B681B680A435A6007E09F
:103DA8007B681B685A687B681B6822F400625A604B
:103DB8007B681B68DA6A7B681B6822F47002DA6227
:103DC8007B681B68D96A7B68DB69013B1A057B68DD
:103DD8001B680A43DA627B681B689A687B681B6801
:103DE80022F400729A607B681B6899687B6893F874
:103DF80030305A027B681B680A439A607B681B68EC
:103E08009A687B681B6822F480629A607B681B68EA
:103E180099687B685B699A027B681B680A439A60A9
:103E280000BF1437BD4680BC704700BF0023014067
:103E38000100000F80B584B000AF78607B689B6B91
:103E4800FB60FB681B6C03F05003002B3CD1FB6844
:103E58001B6C43F40072FB681A64FB681B689B6860
:103E680003F04053002B2BD1FB681B7E002B27D17E
:103E7800FB681B68DB6A03F47003002B06D0FB6841
:103E88001B689B6803F48063002B19D1FB681B68CF
:103E98005A68FB681B6822F020025A60FB681B6C9A
:103EA80023F48072FB681A64FB681B6C03F480536C
:103EB800002B05D1FB681B6C43F00102FB681A64F8
:103EC800F868FDF7F9FA0EE0FB681B6C03F01003C5
:103ED800002B03D0F868FFF77DFD04E0FB689B6BBF
:103EE800DB6C7868984700BF1037BD4680BD80B549
:103EF80084B000AF78607B689B6BFB60F868FFF765
:103F080057FD00BF1037BD4680BD80B584B000AFF7
:103F180078607B689B6BFB60FB6840221A64FB68D7
:103F28005B6C43F00402FB685A64F868FFF752FDC3
:103F380000BF1037BD4680BD80B483B000AF786045
:103F480000BF0C37BD4680BC7047000080B485B008
:103F580000AF78607B6803F00703FB600C4BDB68FD
:103F6800BB60BA684FF6FF031340BB60FB681A02D8
:103F7800BB68134343F0BF6343F40033BB60044A98
:103F8800BB68D36000BF1437BD4680BC704700BF14
:103F980000ED00E080B400AF044BDB681B0A03F0BF
:103FA80007031846BD4680BC704700BF00ED00E01F
:103FB80080B483B000AF0346FB7197F90730002B3C
:103FC8000BDBFB7903F01F02064997F907305B0901
:103FD800012000FA02F241F8232000BF0C37BD4649
:103FE80080BC704700E100E080B483B000AF0346B6
:103FF8003960FB7197F90730002B0ADB3B68DAB2AE
:104008000C4997F907301201D2B20B4483F8002308
:104018000AE03B68DAB20849FB7903F00F03043B76
:104028001201D2B20B441A7600BF0C37BD4680BCD1
:10403800704700BF00E100E000ED00E080B489B007
:1040480000AFF860B9607A60FB6803F00703FB61B2
:10405800FB69C3F10703042B28BF0423BB61FB6979
:104068000433062B02D9FB69033B00E000237B6184
:104078004FF0FF32BB6902FA03F3DA43BB681A4018
:104088007B699A404FF0FF317B6901FA03F3D9430A
:104098007B680B40134318462437BD4680BC7047E5
:1040A80080B582B000AF78607B68013BB3F1807F58
:1040B80001D301230FE00A4A7B68013B53600F21BB
:1040C8004FF0FF30FFF790FF054B00229A60044B3A
:1040D80007221A60002318460837BD4680BD00BF76
:1040E80010E000E080B582B000AF78607868FFF734
:1040F8002DFF00BF0837BD4680BD80B586B000AF34
:104108000346B9607A60FB7300237B61FFF742FFC7
:1041180078617A68B9687869FFF790FF024697F97D
:104128000F3011461846FFF75FFF00BF1837BD462E
:1041380080BD80B582B000AF0346FB7197F90730A8
:104148001846FFF735FF00BF0837BD4680BD80B56C
:1041580082B000AF78607868FFF7A2FF0346184680
:104168000837BD4680BD000080B586B000AF7860D6
:1041780000237B61FFF7E0F938617B68002B01D1F0
:10418800012399E07B68022283F835207B680022AE
:1041980083F834207B681B681A687B681B6822F0E8
:1041A80001021A600FE0FFF7C7F902463B69D31A0C
:1041B800052B08D97B6820225A657B68032283F87F
:1041C8003520032378E07B681B681B6803F0010334
:1041D800002BE8D17B681B681B687B617A69384BC8
:1041E80013407B617B685A687B689B681A437B68CD
:1041F800DB681A437B681B691A437B685B691A434F
:104208007B689B691A437B68DB691A437B681B6A76
:1042180013437A6913437B617B685B6A042B07D17C
:104228007B68DA6A7B681B6B13437A6913437B618B
:104238007B681B687A691A607B681B685B697B61AD
:104248007B6923F007037B617B685B6A7A691343A8
:104258007B617B685B6A042B17D17B689B6A7A69F0
:1042680013437B617B68DB6A002B0ED0786800F013
:104278000BFB0346002B08D07B6840225A657B68FD
:10428800012283F83520012316E07B681B687A69D0
:104298005A61786800F0C4FA0346FB607B68DB6DFE
:1042A8003F229A40FB689A607B6800225A657B68C7
:1042B800012283F83520002318461837BD4680BDF3
:1042C8003F8010F080B586B000AFF860B9607A60C2
:1042D8003B600023FB75FB689B6D3B61FB6893F8B3
:1042E8003430012B01D1022340E0FB68012283F81E
:1042F8003420FB6893F83530DBB2012B2FD1FB68F3
:10430800022283F83520FB6800225A653B687A68E8
:10431800B968F86800F057FAFB68DB6D3F229A40ED
:104328003B699A60FB681B681A68FB681B6842F067
:1043380016021A60FB681B6C002B07D0FB681B6811
:104348001A68FB681B6842F008021A60FB681B6861
:104358001A68FB681B6842F001021A6005E0FB68F6
:10436800002283F834200223FB75FB7D184618379A
:10437800BD4680BD80B584B000AF78607B689B6D1A
:10438800FB60FFF7D9F8B8607B6893F83530DBB28B
:10439800022B08D07B6880225A657B68002283F84C
:1043A8003420012352E07B681B681A687B681B680D
:1043B80022F016021A607B681B685A697B681B68C2
:1043C80022F080025A617B681B6C002B03D17B684A
:1043D8009B6C002B07D07B681B681A687B681B687E
:1043E80022F008021A607B681B681A687B681B68E1
:1043F80022F001021A6013E0FFF79EF80246BB683C
:10440800D31A052B0CD97B6820225A657B680322B6
:1044180083F835207B68002283F83420032315E0D5
:104428007B681B681B6803F00103002BE4D17B68E1
:10443800DB6D3F229A40FB689A607B68012283F813
:1044480035207B68002283F8342000231846103773
:10445800BD4680BD80B483B000AF78607B6893F8B8
:104468003530DBB2022B04D07B6880225A650123E9
:104478000CE07B68052283F835207B681B681A6886
:104488007B681B6822F001021A60002318460C376B
:10449800BD4680BC7047000080B586B000AF78602C
:1044A8000023BB608E4B1B688E4AA2FB03239B0A2A
:1044B8007B617B689B6D3B613B691B68FB607B682C
:1044C800DB6D08229A40FB681340002B1AD07B68EA
:1044D8001B681B6803F00403002B13D07B681B6860
:1044E8001A687B681B6822F004021A607B68DB6D1F
:1044F80008229A403B699A607B685B6D43F0010231
:104508007B685A657B68DB6D01229A40FB68134023
:10451800002B12D07B681B685B6903F08003002BBB
:104528000BD07B68DB6D01229A403B699A607B68FF
:104538005B6D43F002027B685A657B68DB6D042281
:104548009A40FB681340002B12D07B681B681B68DD
:1045580003F00203002B0BD07B68DB6D04229A402A
:104568003B699A607B685B6D43F004027B685A651F
:104578007B68DB6D10229A40FB681340002B43D008
:104588007B681B681B6803F00803002B3CD07B6822
:10459800DB6D10229A403B699A607B681B681B6838
:1045A80003F48023002B18D07B681B681B6803F476
:1045B8000023002B08D17B681B6C002B24D07B6860
:1045C8001B6C786898471FE07B689B6C002B1BD09E
:1045D8007B689B6C7868984716E07B681B681B684B
:1045E80003F48073002B07D17B681B681A687B680B
:1045F8001B6822F008021A607B681B6C002B03D032
:104608007B681B6C786898477B68DB6D20229A4032
:10461800FB681340002B00F08F807B681B681B68C9
:1046280003F01003002B00F087807B68DB6D2022ED
:104638009A403B699A607B6893F83530DBB2052B6A
:1046480036D17B681B681A687B681B6822F01602E3
:104658001A607B681B685A697B681B6822F08002B5
:104668005A617B681B6C002B03D17B689B6C002B09
:1046780007D07B681B681A687B681B6822F00802F1
:104688001A607B68DB6D3F229A403B699A607B68C1
:10469800012283F835207B68002283F834207B6868
:1046A8001B6D002B7ED07B681B6D7868984779E07E
:1046B8007B681B681B6803F48023002B1DD07B6874
:1046C8001B681B6803F40023002B0DD17B685B6C0F
:1046D800002B31D07B685B6C786898472CE000BF72
:1046E80028000020B5814E1B7B68DB6B002B23D094
:1046F8007B68DB6B786898471EE07B681B681B68E3
:1047080003F48073002B0FD17B681B681A687B68E1
:104718001B6822F010021A607B68012283F835209A
:104728007B68002283F834207B68DB6B002B03D086
:104738007B68DB6B786898477B685B6D002B32D0B1
:104748007B685B6D03F00103002B22D07B68052298
:1047580083F835207B681B681A687B681B6822F021
:1047680001021A60BB680133BB607A699A4207D3B9
:104778007B681B681B6803F00103002BF2D100E083
:1047880000BF7B68012283F835207B68002283F80C
:1047980034207B68DB6C002B05D07B68DB6C786889
:1047A800984700E000BF1837BD4680BD80B483B08D
:1047B80000AF78607B6893F83530DBB218460C3769
:1047C800BD4680BC704780B485B000AFF860B96062
:1047D8007A603B60FB681B681A68FB681B6822F4F8
:1047E80080221A60FB681B683A685A60FB689B68FD
:1047F800402B08D1FB681B687A689A60FB681B68C5
:10480800BA68DA6007E0FB681B68BA689A60FB68F8
:104818001B687A68DA6000BF1437BD4680BC7047F1
:1048280080B485B000AF78607B681B68DBB2103B52
:10483800134AA2FB03231B09FB60124AFB681344BB
:104848001B781A467B68DA65FB68032B09D97B68F5
:104858001B6823F47F7323F003031A1D7B689A6592
:1048680007E07B681B6823F47F7323F003037A68EF
:1048780093657B689B6D18461437BD4680BC7047AE
:10488800ABAAAAAAC8A4000880B485B000AF786013
:104898000023FB737B689B6ABB607B689B69002B6A
:1048A8001FD1BB68032B56D801A252F823F000BFD2
:1048B800C9480008DB480008C94800085F490008E3
:1048C8007B68DB6A03F08073002B46D00123FB73FF
:1048D80043E07B68DB6AB3F1C07F40D10123FB73FF
:1048E8003DE07B689B69B3F5005F21D1BB68032B72
:1048F80037D801A252F823F01149000817490008D7
:1049080011490008294900080123FB7330E07B683E
:10491800DB6A03F08073002B25D00123FB7322E0B0
:104928007B68DB6AB3F1C07F1FD10123FB731CE0F6
:10493800BB68022B03D9BB68032B03D018E0012303
:10494800FB7315E07B68DB6A03F08073002B0ED0E5
:104958000123FB730BE000BF0AE000BF08E000BFC3
:1049680006E000BF04E000BF02E000BF00E000BFB7
:10497800FB7B18461437BD4680BC704780B487B0AF
:1049880000AF7860396000237B616FE13B681A688B
:1049980001217B6901FA03F31340FB60FB68002BDC
:1049A80000F061813B685B6803F00303012B05D0CD
:1049B8003B685B6803F00303022B30D17B689B687C
:1049C8003B617B695B00032202FA03F3DB433A692C
:1049D80013403B613B68DA687B695B0002FA03F3CA
:1049E8003A6913433B617B683A699A607B685B6804
:1049F8003B6101227B6902FA03F3DB433A69134006
:104A08003B613B685B681B0903F001027B6902FAA2
:104A180003F33A6913433B617B683A695A603B6820
:104A28005B6803F00303032B17D07B68DB683B61EB
:104A38007B695B00032202FA03F3DB433A69134004
:104A48003B613B689A687B695B0002FA03F33A6949
:104A580013433B617B683A69DA603B685B6803F043
:104A68000303022B23D17B69DA087B68083253F8E9
:104A780022303B617B6903F007039B000F2202FA97
:104A880003F3DB433A6913403B613B681A697B696E
:104A980003F007039B0002FA03F33A6913433B61EF
:104AA8007B69DA087B680832396943F822107B6829
:104AB8001B683B617B695B00032202FA03F3DB435B
:104AC8003A6913403B613B685B6803F003027B690A
:104AD8005B0002FA03F33A6913433B617B683A6966
:104AE8001A603B685B6803F44033002B00F0BB801E
:104AF8000023BB60644B5B6C634A43F4804353649C
:104B0800614B5B6C03F48043BB60BB685F4A7B69A5
:104B18009B08023352F823303B617B6903F003039F
:104B28009B000F2202FA03F3DB433A6913403B610F
:104B38007B68574A934231D07B68564A93422BD0C0
:104B48007B68554A934225D07B68544A93421FD0CC
:104B58007B68534A934219D07B68524A934213D0D8
:104B68007B68514A93420DD07B68504A934207D0E4
:104B78007B684F4A934201D1082310E009230EE0D5
:104B880007230CE006230AE0052308E0042306E0D7
:104B9800032304E0022302E0012300E000237A69F2
:104BA80002F00302920093401A463B6913433B61AB
:104BB80036497B699B0802333A6941F823203D4B0B
:104BC8009B683B61FB68DB433A6913403B613B6888
:104BD8005B6803F48013002B03D03A69FB68134326
:104BE8003B61344A3B699360324BDB683B61FB684D
:104BF800DB433A6913403B613B685B6803F400138D
:104C0800002B03D03A69FB6813433B61294A3B698F
:104C1800D360284B5B683B61FB68DB433A69134010
:104C28003B613B685B6803F40033002B03D03A69AF
:104C3800FB6813433B611F4A3B6953601D4B1B686C
:104C48003B61FB68DB433A6913403B613B685B6847
:104C580003F48033002B03D03A69FB6813433B61AC
:104C6800144A3B6913607B6901337B613B681A68AE
:104C78007B6922FA03F3002B7FF488AE00BF00BFE4
:104C88001C37BD4680BC70470038024000380140E0
:104C9800000002400004024000080240000C0240EC
:104CA800001002400014024000180240001C02409C
:104CB80000200240003C014080B485B000AF78601D
:104CC8000B467B807B681A697B881340002B02D0D7
:104CD8000123FB7301E00023FB73FB7B18461437A9
:104CE800BD4680BC7047000080B582B000AF034667
:104CF800FB80084B5A69FB881340002B06D0054AF5
:104D0800FB885361FB881846FDF7E2FA00BF0837B5
:104D1800BD4680BD003C014080B584B000AF7860DE
:104D28007B68002B01D101232BE17B6893F83D3090
:104D3800DBB2002B06D17B68002283F83C20786820
:104D4800FEF770F87B68242283F83D207B681B6897
:104D58001A687B681B6822F001021A607B681B686E
:104D68001A687B681B6842F400421A607B681B68FB
:104D78001A687B681B6822F400421A6002F02AF95C
:104D8800F8607B685B68814A934207D8FB68804A71
:104D9800934294BF01230023DBB206E0FB687D4AFF
:104DA800934294BF01230023DBB2002B01D00123DF
:104DB800E7E0FB68784AA2FB03239B0CBB607B6897
:104DC8001B685B6823F03F017B681B68BA680A436D
:104DD8005A607B681B681B6A23F03F017B685B682D
:104DE8006A4A934202D8BB68013309E0BB684FF4B2
:104DF800967202FB03F3694AA2FB03239B09013362
:104E08007A6812680B4313627B681B68DB6923F4BA
:104E18004F4222F0FF027B685B685C498B4219D8DD
:104E2800FB68591E7B685B685B00B1FBF3F3591C98
:104E380040F6FC730B40002B0AD0FB68591E7B68B8
:104E48005B685B00B1FBF3F30133C3F30B0351E081
:104E580004234FE07B689B68002B11D1FB68581E28
:104E68007B6859680B465B000B44B0FBF3F30133D6
:104E7800C3F30B03002B0CBF01230023DBB212E0AA
:104E8800FB68581E7B6859680B469B000B449900C9
:104E98000B44B0FBF3F30133C3F30B03002B0CBF3C
:104EA80001230023DBB2002B01D0012322E07B6821
:104EB8009B68002B0ED1FB68581E7B6859680B460F
:104EC8005B000B44B0FBF3F30133C3F30B0343F470
:104ED80000430FE0FB68581E7B6859680B469B002F
:104EE8000B4499000B44B0FBF3F30133C3F30B03FA
:104EF80043F44043796809681343CB617B681B68B6
:104F08001B6823F0C0017B68DA697B681B6A1A4357
:104F18007B681B680A431A607B681B689B6823F4DC
:104F2800034323F0FF037A6811697A68D268114352
:104F38007A6812680B4393607B681B68DB6823F010
:104F4800FF017B685A697B689B691A437B681B6809
:104F58000A43DA607B681B681A687B681B6842F042
:104F680001021A607B6800221A647B68202283F899
:104F78003D207B6800221A637B68002283F83E206C
:104F8800002318461037BD4680BD00BFA08601002B
:104F98007F841E00FF083D0083DE1B43D34D621053
:104FA80080B483B000AF78607B681B685B6903F0EE
:104FB8008003802B03D17B681B6800221A6100BF25
:104FC8000C37BD4680BC704780B588B000AF7860AC
:104FD8000023BB617B681B685B687B617B68DB6A5D
:104FE8003B617B6893F83E30FB737B6893F83D30F8
:104FF800BB73FB7B102B03D0FB7B402B40F0C180A5
:105008007B681B689B69BB617B681B685B69FB618C
:10501800FB6903F00103002B0DD13B69B3F52A0F9F
:1050280003D03B69B3F12A4F01D1012300E00023EB
:10503800012B00F03281FB6903F00103002B0CD037
:105048007B695B0A03F00103002B06D0786801F046
:1050580051FB786800F0CDFC92E0FB69DB0803F0B7
:105068000103002B09D07B695B0A03F00103002BC5
:1050780003D0786800F042FD82E0FB695B0803F02A
:105088000103002B09D07B695B0A03F00103002BA5
:1050980003D0786800F05BFD72E0BB699B0803F001
:1050A8000103002B3BD07B681B685B6803F400633B
:1050B800B3F5006F00F0F380FB69DB0903F001032F
:1050C800002B0FD07B699B0A03F00103002B09D04A
:1050D800FB699B0803F00103002B03D1786800F0FB
:1050E80039F94DE0FB699B0803F00103002B00F040
:1050F800D6807B695B0A03F00103002B00F0CF80A8
:10510800BB7B212B03D1786800F0C0F9C7E0FB7B9B
:10511800402B40F0C480786800F02EFABFE07B682E
:105128001B685B6803F40063B3F5006F00F0B78099
:10513800FB699B0903F00103002B0FD07B699B0AD5
:1051480003F00103002B09D0FB699B0803F001035E
:10515800002B03D1786800F0A7FA11E0FB699B08DF
:1051680003F00103002B00F09A807B695B0A03F0CF
:105178000103002B00F09380786800F050FB8EE06C
:105188008DE07B681B6C002B04D07B681B685B6917
:10519800FB6107E07B681B689B69BB617B681B68D8
:1051A8005B69FB61FB695B0803F00103002B12D00C
:1051B8007B695B0A03F00103002B0CD07B681B6C36
:1051C800002B03D07B681B689B69BB61B969786851
:1051D80000F009FF66E0FB691B0903F00103002BDF
:1051E80009D07B695B0A03F00103002B03D07868C0
:1051F80000F044FF56E0BB7B212B02D0BB7B292B60
:1052080025D1FB69DB0903F00103002B0FD07B6973
:105218009B0A03F00103002B09D0FB699B0803F0EC
:105228000103002B03D1786800F021FE39E0FB6907
:105238009B0803F00103002B33D07B695B0A03F062
:105248000103002B2DD0786800F04EFE29E0FB69A1
:105258009B0903F00103002B0FD07B699B0A03F025
:105268000103002B09D0FB699B0803F00103002B05
:1052780003D1786800F058FE14E0FB699B0803F03E
:105288000103002B0ED07B695B0A03F00103002B9E
:1052980008D0786800F086FE04E000BF02E000BF96
:1052A80000E000BF2037BD4680BD80B483B000AFAA
:1052B800786000BF0C37BD4680BC704780B483B0AF
:1052C80000AF786000BF0C37BD4680BC704780B423
:1052D80083B000AF786000BF0C37BD4680BC704714
:1052E80080B483B000AF786000BF0C37BD4680BC87
:1052F800704780B483B000AF78600B46FB701346EC
:105308003B8000BF0C37BD4680BC704780B483B07B
:1053180000AF786000BF0C37BD4680BC704780B4D2
:1053280083B000AF786000BF0C37BD4680BC7047C3
:1053380080B483B000AF786000BF0C37BD4680BC36
:10534800704780B483B000AF786000BF0C37BD46AB
:1053580080BC704780B584B000AF78607B6893F8F4
:105368003D30FB737B6893F83E30BB737B68DB6A28
:10537800BB607B681B8D002B50D1FB7B212B4DD153
:10538800BB68082B1DD0BB68202B1AD0BB6813F54F
:10539800803F16D07B681B685A687B681B6822F4BC
:1053A800E0625A607B6811221A637B68002283F8E6
:1053B8003E207B68202283F83D207868FFF775FF40
:1053C80060E07B681B685A687B681B6822F4E062AF
:1053D8005A607B681B681A687B681B6842F4007215
:1053E8001A607B6800221A637B68202283F83D20BC
:1053F8007B6893F83E30DBB2402B07D17B680022F4
:1054080083F83E207868FDF726FC3BE07B680022A5
:1054180083F83E207868FFF748FF33E0FB7B212BB9
:1054280005D0BB7B402B2DD1FB7B222B2AD17B685F
:105438005B8D9BB2002B08D17B681B685A687B6820
:105448001B6822F480625A601CE07B6893F83E3047
:10545800DBB2402B03D1786800F08EF812E07B684D
:105468005B6A1A787B681B681A617B685B6A5A1CDE
:105478007B685A627B685B8D9BB2013B9AB27B6802
:105488005A85FFE700BF1037BD4680BD80B584B0A0
:1054980000AF78607B68DB6AFB607B6893F83D301F
:1054A800DBB2212B64D17B685B8D9BB2002B12D0C1
:1054B8007B685B6A1A787B681B681A617B685B6A21
:1054C8005A1C7B685A627B685B8D9BB2013B9AB21F
:1054D8007B685A854CE0FB68082B1DD0FB68202BA5
:1054E8001AD0FB6813F5803F16D07B681B685A6892
:1054F8007B681B6822F4E0625A607B6811221A6399
:105508007B68002283F83E207B68202283F83D20B8
:105518007868FFF7CAFE2BE07B681B685A687B68CF
:105528001B6822F4E0625A607B681B681A687B6813
:105538001B6842F400721A607B6800221A637B6859
:10554800202283F83D207B6893F83E30DBB2402B65
:1055580007D17B68002283F83E207868FDF77BFB43
:1055680006E07B68002283F83E207868FFF79DFEFE
:1055780000BF1037BD4680BD80B584B000AF7860ED
:105588007B6893F83D30FB737B681B6D002B1DD146
:105598007B68DB6C012B0BD17B689B6CDAB27B6878
:1055A8001B681A617B681B6D9A1C7B681A6577E01B
:1055B8007B689B6C9BB21B12DAB27B681B681A6112
:1055C8007B681B6D5A1C7B681A6569E07B681B6DDC
:1055D800012B0BD17B689B6CDAB27B681B681A6164
:1055E8007B681B6D5A1C7B681A6559E07B681B6DCC
:1055F800022B52D1FB7B222B0DD17B681B681A68CA
:105608007B681B6842F480721A607B681B6D5A1CA9
:105618007B681A6544E07B685B8D9BB2002B15D0D4
:10562800FB7B212B12D17B685B6A1A787B681B682D
:105638001A617B685B6A5A1C7B685A627B685B8D5F
:105648009BB2013B9AB27B685A8529E07B685B8DE7
:105658009BB2002B24D1FB7B212B21D17B681B68BB
:105668005A687B681B6822F4E0625A607B681B6892
:105678001A687B681B6842F400721A607B68002213
:105688001A637B68202283F83D207B68002283F818
:105698003E207868FDF7DFFA02E07868FFF780FCC3
:1056A80000BF1037BD4680BD80B584B000AF7860BC
:1056B8007B6893F83D30DBB2222B40F0AC807B68EE
:1056C8005B8D9BB2FB60FB68032B21D97B681B6851
:1056D8001A697B685B6AD2B21A707B685B6A5A1C6B
:1056E8007B685A627B685B8D9BB2013B9AB27B6890
:1056F8005A857B685B8D9BB2032B40F08C807B685E
:105708001B685A687B681B6822F480625A6082E0D2
:105718007B68DB6A022B75D0FB68012B02D0FB6823
:10572800002B6FD1786800F0B3FF0346002B42D1FD
:105738007B681B681A687B681B6822F480621A60A1
:105748007B681B685A687B681B6822F4E0625A60B1
:105758007B681B681A697B685B6AD2B21A707B68BF
:105768005B6A5A1C7B685A627B685B8D9BB2013B03
:105778009AB27B685A857B68202283F83D207B6833
:1057880093F83E30DBB2402B0AD17B68002283F8C5
:105798003E207B6800221A637868FFF7C0FD3AE074
:1057A8007B68002283F83E207B6812221A6378689F
:1057B800FFF784FD2FE07B681B685A687B681B68CD
:1057C80022F4E0625A607B681B681A697B685B6A2E
:1057D800D2B21A707B685B6A5A1C7B685A627B6813
:1057E8005B8D9BB2013B9AB27B685A857B6820220D
:1057F80083F83D207B68002283F83E207868FFF715
:1058080097FD08E07B681B685A687B681B6822F470
:1058180080625A60FFE700BF1037BD4680BD80B583
:1058280084B000AF78607B68DB6AFB607B685B8D67
:105838009BB2042B1BD17B681B685A687B681B686A
:1058480022F480625A607B681B681A697B685B6A0D
:10585800D2B21A707B685B6A5A1C7B685A627B6892
:105868005B8D9BB2013B9AB27B685A85BDE07B6831
:105878005B8D9BB2032B29D17B681B685A687B68B8
:105888001B6822F480625A60FB68042B0AD0FB680C
:10589800022B07D07B681B681A687B681B6822F498
:1058A80080621A607B681B681A697B685B6AD2B27F
:1058B8001A707B685B6A5A1C7B685A627B685B8DCE
:1058C8009BB2013B9AB27B685A858EE07B685B8D00
:1058D8009BB2022B76D1FB68012B02D0FB68102B00
:1058E80008D17B681B681A687B681B6822F4806291
:1058F8001A6019E0FB68042B02D0FB68022B08D160
:105908007B681B681A687B681B6842F480621A60AF
:105918000AE0FB68102B07D07B681B681A687B6855
:105928001B6842F400721A607B681B681A697B68FE
:105938005B6AD2B21A707B685B6A5A1C7B685A62CF
:105948007B685B8D9BB2013B9AB27B685A857B680A
:105958001B681A697B685B6AD2B21A707B685B6ADB
:105968005A1C7B685A627B685B8D9BB2013B9AB27A
:105978007B685A857B681B685A687B681B6822F4B9
:1059880040725A607B68202283F83D207B6893F838
:105998003E30DBB2402B0AD17B68002283F83E20E0
:1059A8007B6800221A637868FFF7B9FC1DE07B6802
:1059B800002283F83E207B6812221A637868FFF77A
:1059C8007DFC12E07B681B681A697B685B6AD2B24F
:1059D8001A707B685B6A5A1C7B685A627B685B8DAD
:1059E8009BB2013B9AB27B685A8500BF1037BD460F
:1059F80080BD80B483B000AF78607B6893F83E3098
:105A0800DBB2402B17D17B681B6D002B09D17B685B
:105A18005B6CDBB21A467B681B6802F0FE021A61F7
:105A280067E07B685B6CDBB243F00103DAB27B684A
:105A38001B681A615DE07B681B69B3F5804F33D141
:105A48007B6893F83D30DBB2212B09D17B685B6C16
:105A5800DBB21A467B681B6802F0FE021A6108E096
:105A68007B685B6CDBB243F00103DAB27B681B68CE
:105A78001A617B685B6B002B04D07B685B6BDB6B0C
:105A8800002B08D17B689B6B002B32D07B689B6B0B
:105A9800DB6B002B2DD07B681B685A687B681B6802
:105AA80042F400625A6024E07B681B6D002B0ED123
:105AB8007B685B6C9BB2DB11DBB203F00603DBB2E5
:105AC80063F00F03DAB27B681B681A6111E07B6828
